:060000000A128A11122809
:10000800FE00030EF9000408FA000A08FB00831238
:1000180003137F08FC000A128A15D92E0A128A11C6
:100028001528FD0183120313EC01ED01DB30840078
:10003800EE300A168A1112230A128A118317903099
:100048008400A0300A168A11122383010A128A1129
:100058004A2C83160313B50083120313620803198D
:10006800402883160313350883120313E50062083A
:100078008400650883138000831603133508840001
:1000880083130008AE000A168A1152230A128A1135
:10009800031C5728013083120313E50065088316F3
:1000A8000313B507402883160313AF012D302E061E
:1000B800031D6128AF01AF0A65282B302E06031DEA
:1000C8006D28013083120313E500650883160313B6
:1000D800B507AE010030B4000030B3000030B20004
:1000E8000030B100B0018828350884002E30831311
:1000F8000006031D8A282F16013083120313E5001A
:10010800650883160313B5072F1E78283508840061
:10011800831300080A168A112F230A128A11031C56
:10012800502983160313AF140530AC000030AD001E
:100138002E0883120313E500E601E51BE603831688
:1001480003132C08033E83120313E70083160313DB
:100158002D080318013E003E83120313E8006608C9
:100168006806031DB928650867060319432983161D
:1001780003132F1EC728FF3083120313E5006508F9
:1001880083160313B007013083120313E5006508D3
:1001980083160313AE07003083120313A500003043
:1001A800A4000030A3000A30A20083160313340809
:1001B80083120313A900831603133308831203134E
:1001C800A80083160313320883120313A7008316AB
:1001D8000313310883120313A6000A168A119F25F8
:1001E8000A128A1183120313250883160313B40015
:1001F80083120313240883160313B3008312031313
:10020800230883160313B2008312031322088316EC
:100218000313B1003508840083130008D03E83120D
:100228000313E500E601E701E801650883160313F7
:10023800B10783120313660803110318013E03195B
:10024800282983160313B2078312031367080311BF
:100258000318013E0319332983160313B3078312C6
:100268000313680803110318013E03193E29831676
:100278000313B4078312031383160313802883160A
:1002880003132F1A8028013083120313E500650831
:1002980083160313B007802883160313AE013508AD
:1002A800840065308313000603196029350884002B
:1002B80045300006031DFE29013083120313E500B3
:1002C800650883160313B507350884002D3000062A
:1002D800031D7029AF157629350884002B300006D8
:1002E800031D7E29013083120313E5006508831678
:1002F8000313B50735088400303000060319762942
:100308003508840000080A168A112F230A128A1158
:10031800031CF82983160313350884008313000887
:10032800D03E83120313E500650883160313AE005D
:10033800013083120313E500650883160313B5071C
:100348003508840000080A168A112F230A128A1118
:10035800031CF82983160313350884000A30831216
:100368000313E5006508A200831603132E080A1676
:100378008A113F230A128A1183130007D03E831281
:100388000313E600660883160313AE0001308312D8
:100398000313E500650883160313B50735088400C1
:1003A80000080A168A112F230A128A11031CF82939
:1003B80083160313350884000A3083120313E500FB
:1003C8006508A200831603132E080A168A113F2314
:1003D8000A128A1183130007D03E83120313E60022
:1003E800660883160313AE0083160313AF1DFE2998
:1003F800AE09AE0A2E0883120313E50065088316BA
:100408000313B0078312031362080319182A83160B
:100418000313AF1C182A350883120313E50062087A
:10042800840065088313800083160313340883123D
:100438000313AD0083160313330883120313AC00B0
:1004480083160313320883120313AB0083160313B6
:10045800310883120313AA000A168A11E0250A122A
:100468008A11831203132A0883160313B100831217
:1004780003132B0883160313B200831203132C08EB
:1004880083160313B300330832043104031D552ABD
:10049800003083120313E2000030E3000030E40070
:1004A8000800B01F312BB009B00A3008803A763EF8
:1004B800031CD12A033083120313D2001530D30052
:1004C8005030D40083160313310883120313D50068
:1004D80083160313320883120313D60083160313FB
:1004E800330883120313D7000A128A15C4210A128B
:1004F8008A1183120313520883160313B10083125F
:100508000313530883160313B2008312031354080A
:1005180083160313B300F63083120313E50065084E
:1005280083160313B007592A003083120313D2002D
:100538002030D3004130D4008316031331088312CE
:100548000313D50083160313320883120313D6004E
:1005580083160313330883120313D7000A128A156C
:10056800C4210A128A118312031352088316031333
:10057800B10083120313530883160313B2008312C6
:100588000313540883160313B300FF3083120313B5
:10059800E500650883160313B0073008031D982A81
:1005A8000030A0008030A1000030A2003108831282
:1005B8000313D20083160313320883120313D300E4
:1005C80083160313330883120313D400831603130B
:1005D800200883120313D5008316031321088312FE
:1005E8000313D60083160313220883120313D700BC
:1005F8000A168A11CB260A128A110318102C8316A0
:1006080003132F1C292B0030A3008030A4000030D6
:10061800A500230883120313B200831603132408CA
:1006280083120313B30083160313250883120313DD
:10063800B4000A168A111A23831203133208E2003F
:100648003308E3003408E400080000308312E200B5
:100658008030E3000030E4000800831603133008FC
:10066800803A7F3E0318722B102C03308312031339
:10067800C2001530C3005030C4008316031331087C
:1006880083120313C500831603133208831203135E
:10069800C60083160313330883120313C7000A1214
:1006A8008A153E230A128A118312031342088316FD
:1006B8000313B10083120313430883160313B20014
:1006C80083120313440883160313B300F63083120E
:1006D8000313E500650883160313B0070A303002D8
:1006E800031CB02B392B003083120313C2002030B7
:1006F800C3004130C4008316031331088312031367
:10070800C50083160313320883120313C600831629
:100718000313330883120313C7000A128A153E23F2
:100728000A128A1183120313420883160313B100B5
:1007380083120313430883160313B20083120313AF
:10074800440883160313B300FF3083120313E50034
:10075800650883160313B0073008031D772BFF3095
:10076800A6007F30A7007F30A80026088312031355
:10077800D20083160313270883120313D3008316AA
:100788000313280883120313D400831603133108B4
:1007980083120313D500831603133208831203133D
:1007A800D60083160313330883120313D7000A16DF
:1007B8008A11CB260A128A110318102C83160313E8
:1007C8002F1C082C0030A9008030AA000030AB0094
:1007D800290883120313B200831603132A0883120D
:1007E8000313B300831603132B0883120313B400F7
:1007F8000A168A111A23831203133208E2003308F7
:10080800E3003408E400080000308312E20080307E
:10081800E3000030E4000800831603132F1C392C72
:10082800310883120313B2008316031332088312AC
:100838000313B30083160313330883120313B4009E
:100848000A168A111A238312031332088316031314
:10085800B10083120313330883160313B200831203
:100868000313340883160313B300310883120313E8
:10087800E20083160313320883120313E30083167E
:100888000313330883120313E40008000A128A11C1
:10089800B0270A128A1183120313810183120313EA
:1008A8006D08031D912CEA30A2000030A3007730B8
:1008B800A4008030A5000A168A11B5230A128A11ED
:1008C800E53083160313D1005108FD000030DE0027
:1008D800F030DF004130E00083120313A601A60ABE
:1008E80001300A168A1122260A128A113E30831212
:1008F8000313A7008030A8000A168A115E250A1281
:100908008A1183120313A601A60A02300A168A1155
:1009180022260A128A111C30522F831203136D03E8
:10092800031DD02CEA30A2000030A3007730A400C9
:100938008030A5000A168A11B5230A128A11B83028
:1009480083160313D1005108FD000030DE00F0309B
:10095800DF004130E00083120313A601A60A01302C
:100968000A168A1122260A128A116030831203138A
:10097800A7008030A8000A168A115E250A128A117B
:1009880083120313A601A60A02300A168A11222628
:100998000A128A110B30522F0230831203136D068C
:1009A800031D102DEA30A2000030A3007730A40008
:1009B8008030A5000A168A11B5230A128A11C73099
:1009C80083160313D1005108FD000030DE00F0301B
:1009D800DF004130E00083120313A601A60A0130AC
:1009E8000A168A1122260A128A114F30831203131B
:1009F800A7008030A8000A168A115E250A128A11FB
:100A080083120313A601A60A02300A168A112226A7
:100A18000A128A112D30522F0330831203136D06E8
:100A2800031D5C2FEA300A168A117E230A128A11E6
:100A3800831603133608D2003708D3003808D400C9
:100A48003C3083120313D2001C30D3004630D4004C
:100A580083160313520883120313D5008316031356
:100A6800530883120313D600831603135408831202
:100A78000313D7000A168A11CB260A128A11031803
:100A8800532DEA300A168A114B240A128A1183124E
:100A980003132208FF3EEA3E840083138001831279
:100AA80003136C08031D882DEA300A168A117E2369
:100AB8000A128A11831603133608DE003708DF008E
:100AC8003808E0000730D100510883120313A6004C
:100AD80001300A168A1122260A128A113E300A1695
:100AE8008A11E3240A128A11073083160313D100EE
:100AF800510883120313A60002300A168A1122260F
:100B08000A128A112030BC2D831203136C03031DB3
:100B1800C12DEA300A168A117E230A128A11831619
:100B280003133608DB003708DC003808DD0007301F
:100B3800D100510883120313A60001300A168A1146
:100B480022260A128A1120300A168A11E3240A1270
:100B58008A11073083160313D10051088312031337
:100B6800A60002300A168A1122260A128A113E307D
:100B78000A168A11E3240A128A11831603135D08E0
:100B88005C045B040319A42E60085F045E04031967
:100B9800A42ED73083120313C2002330C3003F3082
:100BA800C400831603135B0883120313C50083165E
:100BB80003135C0883120313C600831603135D082E
:100BC80083120313C7000A128A153E230A128A11D8
:100BD800831203134208D2004308D3004408D40008
:100BE800831603135E0883120313D50083160313B9
:100BF8005F0883120313D600831603136008831259
:100C08000313D7000A128A15C4210A128A11831203
:100C18000313520883160313E100831203135308C6
:100C280083160313E2008312031354088316031375
:100C3800E300610883120313B800831603136208E4
:100C480083120313B9008316031363088312031373
:100C5800BA008530B5000330B600C130B7000A12BB
:100C68008A15D0250A128A11831203133508C50084
:100C78003608C6003708C7000030C2007F30C300FE
:100C88004330C4000A128A153E230A128A118312BD
:100C980003134208D5004308D6004408D70025307E
:100CA800D2000230D300C130D4000A128A15C42100
:100CB8000A128A1183120313520883160313D500EC
:100CC80083120313530883160313D60083120313E6
:100CD800540883160313D7005508AE005608AF0012
:100CE8005708B0000A128A1524210A128A1183169D
:100CF80003132E08D8002F08D9003008DA00580846
:100D080083120313E2008316031359088312031393
:100D1800E300831603135A0883120313E4000A122C
:100D28008A157C220A128A11831203136308831618
:100D38000313E90083120313620883160313E80000
:100D48006908803AFF0080307F02031DAD2EFE3017
:100D580068020318CF2E83160313E91BCF2E8312C4
:100D68000313A601A60A02300A168A1122260A12BD
:100D78008A11713083120313A7008030A8000A1665
:100D88008A115E250A128A11831603136808D10096
:100D98005108FD00E52E831203130816A601A60AC2
:100DA80002300A168A1122260A128A118630831204
:100DB8000313A7008030A8000A168A115E250A12BC
:100DC8008A1183120313A601A60A01300A168A1192
:100DD80022260A128A118D3083120313A70080304D
:100DE800A8000A168A115E250A128A11083083168D
:100DF8000313D100510883120313A60001300A1609
:100E08008A1122260A128A11831603135E08B40077
:100E18005F08B5006008B6000A128A15E7240A12AE
:100E28008A11903083120313A7000130A8000A1614
:100E38008A115E250A128A117F3083120313A700D4
:100E48008030A8000A168A115E250A128A11083015
:100E580083160313D100510883120313A60002302E
:100E68000A168A1122260A128A11831603135B08AE
:100E7800B4005C08B5005D08B6000A128A15E724BC
:100E88000A128A11903083120313A7000130A800B8
:100E98000A168A115E250A128A1178308312031302
:100EA800A7008030A8000A168A115E250A128A1146
:100EB8000A168A1174260A128A1183160313670800
:100EC80083120313AB0083160313660883120313FC
:100ED800AA000A168A11D8230A128A118312031348
:100EE8002A08D2002B08D3002C08D4008316031339
:100EF8005E0883120313C500831603135F08831269
:100F08000313C60083160313600883120313C70074
:100F1800C030C2006430C3004430C4000A128A15CD
:100F28003E230A128A11831203134208D50043088C
:100F3800D6004408D7000A168A11CB260A128A114D
:100F4800031C522C83160313E601E70183120313D3
:100F5800081610108B12522C831603139F111F159D
:100F68009F14F13086000F30870088018516091418
:100F78008914091583120313860188160813881724
:100F88008316031381130113811281110108F839A3
:100F9800033881008B158B120B160C140B170A12D1
:100FA8008A15C3200A128A110A168A1124230A12E2
:100FB8008A1183120313A601A60A01300A168A11A0
:100FC80022260A128A1183120313081607178B1098
:100FD8000B100B110C10823083120313AE00DD309E
:100FE800AD00AD0BF52FAE0BF52F8B178312031346
:040FF800ED010800FF
:10100000FF1B0A2883137F1883170008840A03191B
:10101000FF0A080008308A000408840A82070034A6
:10102000013400340A34003464340034E8340334C6
:1010300010342734203441346234723461347834CB
:1010400061346E3465343A342034323430346D34A3
:101050004C342034003420344134623472346134EE
:10106000783461346E3465343A3420343534323473
:101070006D344C34203400342034413462347234C2
:101080006134783461346E3465343A342034323427
:1010900035346D344C3420340034203443346134DE
:1010A0006E346334653472342034643465342034EF
:1010B0006D3461346D346134203400344334613430
:1010C0006E346334653472342034643465342034CF
:1010D000703475346C346D346F346E3400342034B5
:1010E000433461346E346334653472342034703484
:1010F00061346E3463347234653461347334003473
:1011000020342034203420342034203400346D3412
:101110004C34203420342034203400346D3469348D
:101120006E34203420342034003445345234523468
:101130004F3452342034003444346F3473346934BF
:1011400073343A340034253464342E342534643412
:1011500000342E340034303400343134003432342E
:10116000003433340034343400343534003436340D
:0E11700000343734003438340034393400345D
:1011860000300A168A1166230A128A151A3083124B
:101196000313A700F730A600A60BCF28A70BCF286E
:1011A600D42803300A168A1199230A128A150730A1
:1011B60083120313A7007C30A600A60BE028A70B1A
:1011C600E028000003300A168A1199230A128A15AC
:1011D6000F3083120313A7004730A600A60BF12891
:1011E600A70BF12803300A168A1199230A128A15C9
:1011F60002300A168A1199230A128A1502300A1633
:101206008A1199230A128A1508300A168A11992317
:101216000A128A1500300A168A1199230A128A15AB
:101226000C300A168A1199230A128A1500300A16FA
:101236008A1199230A128A1506300A168A119923E9
:101246000800831603132E0883120313B5008316B2
:1012560003132F0883120313B600831603133008F3
:1012660083120313B700831603132E08A6002F0854
:10127600A7003008A8000A168A112A270A128A151A
:1012860083160313260883120313B200831603136F
:10129600270883120313B300831603132808831247
:1012A6000313B4000A168A111A230A128A15831226
:1012B60003133208B8003308B9003408BA000A121A
:1012C6008A15D0250A128A15831203133508831648
:1012D6000313B10083120313360883160313B200F7
:1012E60083120313370883160313B30031088312DE
:1012F6000313B50083160313320883120313B600D3
:1013060083160313330883120313B70083160313DC
:101316002E0883120313B800831603132F088312B3
:101326000313B90083160313300883120313BA009C
:101336000A128A15D0250A128A1583120313350854
:1013460083160313AE0083120313360883160313A2
:10135600AF0083120313370883160313B0002E0859
:10136600A6002F08A7003008A8000A168A112A2707
:10137600831603132608AE002708AF002808B0001E
:101386000800831203135508D8005608D9005708D9
:10139600DA000310590D5A0DDB005B08E000600807
:1013A600031DDC290030D2000030D3000030D40009
:1013B60008005208D8005308D9005408DA00031070
:1013C600590D5A0DDB005B08E1006108031DF22987
:1013D6000030D2000030D3000030D40008000030C6
:1013E600DD000030DE000030DF0089306107D80004
:1013F6005808E0025508D8005608D9005708DA0000
:1014060010300310DA0CD90CD80CFF3E031D042A49
:101416005808DB005B08E1005208D8005308D900E1
:101426005408DA0010300310DA0CD90CD80CFF3E41
:10143600031D162A5808DB005B08E1068030D80039
:101446005808E105D617FF30D505FF30D605003020
:10145600D705D317FF30D205FF30D3050030D405AA
:101466001830D8005808DC0001300310DD0DDE0D01
:10147600DF0DFF3E031D382A54085702031D492A73
:1014860053085602031D492A52085502031C562AC0
:101496005208D5025308031C530FD6025408031CE6
:1014A600540AD7025D1401300310D50DD60DD70DA1
:1014B600FF3E031D572A0130DC02031D372A5D0853
:1014C600A2005E08A3005F08A4006008D8005808C0
:1014D600A5006108D9005908A6000A168A119227A4
:1014E600831203132208D2002308D3002408D40051
:1014F6000800831203136208E6006308E700640825
:10150600E8000310670D680DE900690883160313E8
:10151600A5002508031D9A2A003083120313E5004F
:101526000030E4000030E3000030E20008008312DF
:101536006208E6006308E7006408E8001730031055
:10154600E80CE70CE60CFF3E031DA22A6608E9003C
:10155600690883160313A00083120313E317FF30F1
:10156600E205FF30E3050030E40562088316031345
:10157600A10083120313630883160313A2008312C8
:101586000313640883160313A300A4018E30A50277
:10159600A51FF32A2508803A8F3E0318DD2A00305E
:1015A60083120313E5000030E4000030E30000304E
:1015B600E20008000130031083160313A40CA30CE9
:1015C600A20CA10CFF3E031DDE2A01308312031379
:1015D600E600660883160313A5070319192BDD2AEF
:1015E60018302502031C142B003083120313E50068
:1015F6000030E4000030E3000030E2000800013073
:101606008312E600031083160313A10DA20DA30D8A
:10161600A40D83120313E60B052B01308316031367
:10162600A502831603132508031D022B20080319A0
:10163600272BA109A209A309A409A10A0319A20A31
:101646000319A30A0319A40A240883120313E50045
:1016560083160313230883120313E400831603136C
:10166600220883120313E30083160313210883124F
:101676000313E2000800831203134208C80043085C
:10168600C9004408CA000310490D4A0DCB004B0897
:10169600CC004C08031D562B0030C2000030C3009E
:1016A6000030C40008004508C8004608C9004708BD
:1016B600CA000310490D4A0DCB004B08D100510852
:1016C600031D6C2B0030C2000030C3000030C40084
:1016D600080051087B3EC8004808CC074208C800ED
:1016E6004308C9004408CA0010300310CA0CC90CCC
:1016F600C80CFF3E031D782B4808CB004B08D100D1
:101706004508C8004608C9004708CA00103003103B
:10171600CA0CC90CC80CFF3E031D8A2B4808CB0017
:101726004B08D1068030C8004808D105C317C61734
:10173600FF30C505FF30C6050030C7050030CD00B7
:101746000030CE000030CF000730C8004808D00077
:10175600421CBB2B4508CD07460803110318460A51
:10176600031DCE07470803110318470A031DCF07B9
:1017760001300310C40CC30CC20CFF3E031DBC2B6E
:1017860001300310C50DC60DC70DFF3E031DC42B4A
:101796000130D002031DAB2B0930C8004808D00029
:1017A600421CE32B4508CD07460803110318460AD9
:1017B600031DCE07470803110318470A031DCF0769
:1017C60001300310C40CC30CC20CFF3E031DE42BF6
:1017D60001300310CF0CCE0CCD0CFF3E031DEC2BBD
:1017E6000130D002031DD32B4D08A2004E08A300E2
:1017F6004F08A4004C08C8004808A5005108C900B5
:101806004908A6000A168A11922783120313220892
:10181600C2002308C3002408C4000800831203136F
:10182600BD003130B5003508B8000130B007FF30D3
:10183600300784000A128A150A200A128A15B50092
:101846003508BE003E080319E22C25303E06031972
:10185600382C3E08B5003D08840035088313800007
:101866000130B5003508BD07182CB9010130B007A5
:10187600FF30300784000A128A150A200A128A15D8
:10188600BE00003A0319E22C643A03194E2C0D3AB5
:1018960003194E2C182C3808840083130008BB004B
:1018A600840A0008BC000230B5003508B807BC1F22
:1018B600652C0330B5003508B904BB09BC09BB0A61
:1018C6000319BC0ABE01BE0A05303E0603198C2C5C
:1018D6003E08B5003507013E84000A128A150A2023
:1018E6000A128A15B6000A128A150A200A128A15E1
:1018F600B70037083C02031D822C36083B02031C46
:101906008C2C0130B5003508BE0705303E06031D98
:101916006B2C3908033903199B2C2D30B5003D0873
:1019260084003508831380000130B5003508BD07F3
:101936003E08B5003508BA00FF30B5003508BA07CD
:101946003A0A0319182C0A30AA000030AB003A08EC
:10195600B5003507013E84000A128A150A200A12CC
:101966008A15A2000A128A150A200A128A15A300ED
:101976003C08A5003B08A4000A168A1120250A1275
:101986008A15831203132308AD002208AC000A1639
:101996008A1173240A128A15831203132A08303E09
:1019A600B6003608BE003E08B5003D08840035087E
:1019B600831380000130B5003508BD079F2C3D0814
:1019C60084008313800108008316031334088312EE
:1019D6000313E20083160313350883120313E3008F
:1019E60083160313360883120313E4000A128A15BA
:1019F6007C220A128A1583120313630883160313C3
:101A0600D00083120313620883160313CF00500815
:101A160083120313AB00831603134F0883120313B9
:101A2600AA000A168A11D8230A128A1583120313EA
:101A36002A08B2002B08B3002C08B4000A168A1133
:101A46001A230A128A15831203133208B8003308C0
:101A5600B9003408BA00831603133408831203133B
:101A6600B50083160313350883120313B6008316D5
:101A76000313360883120313B7000A128A15D025FA
:101A86000A128A15831203133508C5003608C600E4
:101A96003708C7000030C200C830C3004230C40057
:101AA6000A128A153E230A128A1583120313420864
:101AB60083160313C7008312031343088316031305
:101AC600C80083120313440883160313C90047088A
:101AD600AE004808AF004908B0000A128A15242152
:101AE6000A128A15831603132E08CA002F08CB0084
:101AF6003008CC004A0883120313E200831603134E
:101B06004B0883120313E300831603134C08831256
:101B16000313E4000A128A157C220A128A1583121C
:101B26000313630883160313CE008312031362089C
:101B360083160313CD00943083120313EB006B0856
:101B4600B00083160313500883120313B2008316E2
:101B560003134F0883120313B100831603134E08B1
:101B660083120313B400831603134D088312031361
:101B7600B300B7300A128A1511240A128A1590305A
:101B860083120313A2000130A300B730A400003073
:101B9600A5000A168A11B523080083120313350817
:101BA600BB003608BC003708BD0003103C0D3D0DD8
:101BB600BE003E08C1003808BB003908BC003A0820
:101BC600BD0003103C0D3D0DBE003E08C00041089F
:101BD6000319F92D400841020318002E4103FF3A6C
:101BE6004007BB0019303B02031C002E3808B50025
:101BF6003908B6003A08B70008004008031908007B
:101C06004108400203180F2E4003FF3A4107BB006C
:101C160019303B02031808000630BB003B08BF0022
:101C2600B71BBF17BA1B3F17B617FF30B505FF30F6
:101C3600B6050030B705B917FF30B805FF30B9054E
:101C46000030BA054008410203184F2E0130031038
:101C5600B80DB90DBA0DFF3E031D2A2E0130C00284
:101C66004008410603194A2E0130BF023F080739D2
:101C760003194A2E292E01300310B70CB60CB50CE9
:101C8600FF3E031D3F2E0130BB003B08C107410844
:101C960040060319782E3E2E410840020318782E7E
:101CA60001300310B50DB60DB70DFF3E031D542EC2
:101CB6000130C102400841060319742E0130BF02EB
:101CC6003F0807390319742E532E01300310BA0C3E
:101CD600B90CB80CFF3E031D692E0130BB003B0852
:101CE600C00741084006031D682EBF1F8A2EFF301D
:101CF600B506FF30B606FF30B7060130B50700302F
:101D060003180130B607003003180130B7073F1F2C
:101D16009C2EFF30B806FF30B906FF30BA060130F8
:101D2600B807003003180130B90700300318013036
:101D3600BA07BF013508B807360803110318360A73
:101D4600031DB907370803110318370A031DBA071D
:101D5600BA1FBF2EFF30B806FF30B906FF30BA06ED
:101D66000130B807003003180130B90700300318F6
:101D76000130BA07BF01BF0A3808A2003908A3001C
:101D86003A08A4004108BB003B08A5003F08BC0078
:101D96003C08A6000A168A1192278312031322080A
:101DA600B5002308B6002408B70008008B1CFD2EDA
:101DB600061CDB2E1030880683160313E601E701A6
:101DC600003083120313081A0130FF3AF800100896
:101DD6007806FE39780690000030081A0130FF3A7E
:101DE600F800F80EF80D0B087806DF3978068B0038
:101DF6008B10F52F0B1D042F803087067D08810080
:101E0600F42F0C1C122F013083160313E607031858
:101E1600E70A0030E707831203130C10F52F0B1C9B
:101E2600EE2F0608860086010230A0000030A100D1
:101E36002108803AFF0080307F02031D242F0930DD
:101E460020020318E92F8312031320098600B12FFD
:101E56009E30F8007808F000EA300A168A1123242A
:101E66000A128A15E92FA030F8007808F000EA3047
:101E76000A168A1123240A128A15E92FA230F800BD
:101E86007808F000EA300A168A1123240A128A1505
:101E9600E92FA430F8007808F000EA300A168A1113
:101EA60023240A128A15E92FA630F8007808F000D4
:101EB600EA300A168A1123240A128A15E92FA83055
:101EC600F8007808F000EA300A168A1123240A126C
:101ED6008A15E92FAA30F8007808F000EA300A16C9
:101EE6008A1123240A128A15E92FAC30F8007808E3
:101EF600F000EA300A168A1123240A128A15E92FFD
:101F0600AE30F8007808F000EA300A168A11232469
:101F16000A128A15E92FEA300A168A11FD230A12D7
:101F26008A157008FF3EEA3E840083138001E92F7C
:101F36009C30F8007808F000EA300A168A1123244B
:101F46000A128A15E92F9A30F8007808F000EA306C
:101F56000A168A1123240A128A15E92F0608773AE7
:101F66000319A62F0C3A03199B2F063A03198E2F35
:101F7600CA3A0319832F0C3A0319782F063A031924
:101F86006D2F6A3A0319622F0C3A0319572F063A36
:101F960003194C2F3A3A0319412F0C3A0319362FDD
:101FA600063A03192B2FD72F01300310A00DA10DD0
:101FB600FF3E031DD82F2108803AFF0080307F02A4
:101FC600031DE72F09302002031C262F831203135B
:101FD60086010B10F52F0608860086010B108B1064
:101FE6000B110B117C08FF007B088A007A0884001D
:0A1FF600790E8300FE0E7E0E090036
:1026240064008001840A0406031900340406132B91
:10263400831203133408330432040319080080306E
:10264400B406080000300A168A1199230A168A1162
:1026540001300A168A119923080083120313A30078
:10266400A2013A30230203183D2B30302302031C0D
:102674003D2BA201A20A220C080083120313A50019
:10268400A401251C492B2208A3002308A407031036
:10269400A20D0310A50C2508031D432B24080800D4
:1026A40083120313A300A201A20A203023060319F4
:1026B400642B0E3023020318632B09302302031802
:1026C400642BA201220C080083120313A200221C13
:1026D4006D2B08146E2B0810A21C722B8814732BFC
:1026E4008810221D772B8815782B8811A21D7C2B2E
:1026F400081508000811080083120313E900E20119
:1027040069080A128A112D208312031362088316A2
:102714000313B60083120313630883160313B7006D
:1027240083120313640883160313B800080083128A
:102734000313A500071225080A168A1166230A1630
:102744008A11831203138716063083120313A4001D
:102754002F30A300A30BAC2BA40BAC2BB12B8312F7
:10276400031387120800831203132208A700230807
:10277400A8002508FF00240884000A128A150020F6
:102784000A168A11A600270884008317281C8313BD
:10279400260880000008031908000130A707031861
:1027A400A80A0130A4070318A50ABB2B831203133C
:1027B400AF01AB1FE42BAA09AB09AA0A0319AB0AA0
:1027C400AF01AF0A2A08A2002B08A300A4018E308F
:1027D400AD002D08A5002F08AE002E08A6000A168D
:1027E4008A119227831203132208AA002308AB003C
:1027F4002408AC000800F6007608F2007208F7001E
:10280400770884008313000803190D2C0130F200AB
:102814007208F707022C7608F2000030F300F20980
:10282400F309F20A0319F30A7708F4000030F500FB
:1028340072087407F00073080318730A7507F1002F
:102844000800F3007308F1007108F20072088400B4
:102854008313000803193B2C0130F1007108F207BF
:10286400282C0130F1007108F2070130F1007108E1
:10287400F007700884000A128A150A200A168A11C1
:10288400F100720884007108800000080319080030
:10289400332C83120313A9002908A4002408A800D8
:1028A400280884008313000803195D2C0130A40058
:1028B4002408A807522C2908A4000030A500A40964
:1028C400A509A40A0319A50A2808A6000030A70030
:1028D40024082607A20025080318250A2707A300B1
:1028E4000800831203132A082B040319A22CAF0136
:1028F400AF0AAB1B892C01300310AA0DAB0DFF3EB0
:10290400031D7E2C0130AE002E08AF077B2C2B0854
:102914002D02031D8F2C2A082C02031C972C2A0835
:10292400AC022B08031CAD03AD0201300310AB0C49
:10293400AA0CFF3E031D982C0130AF02031D892C05
:102944002D08AB002C08AA000800831203132408E6
:1029540023042204031DB52C25088400831380015D
:10296400840A8001080024087F39A600A701031007
:10297400A60DA70D25088400260883138000840A69
:1029840027088000230D230D0139A600A70125087F
:10299400840026088004840A27088004250884000B
:1029A40082308007840F00080318000AFF00FF30FC
:1029B4007F0780008403240880393F38A400A313D0
:1029C400080083120313A60026080F39A300230866
:1029D400A4002608F039A3002308A500071625083B
:1029E400A30004300310A30CFF3E031DF42C2308A2
:1029F4000A168A1166230A168A118312031387168C
:102A04000C3083120313A300A30B062D00008312C2
:102A14000313871224080A168A1166230A168A11D8
:102A24008312031387160C3083120313A300A30B22
:102A3400192D000083120313871208008312031355
:102A4400A701A801220823040319592DA901A90AE1
:102A5400A31B382D01300310A20DA30DFF3E031D4F
:102A64002D2D0130A6002608A9072A2D01300310B8
:102A7400A70DA80DFF3E031D392D23082502031DB4
:102A8400452D22082402031C4E2D2208A4022308EB
:102A9400031CA503A502271401300310A30CA20CE8
:102AA400FF3E031D4F2D0130A902031D382D2808B8
:102AB400A3002708A200080083120313AC01AD0190
:102AC4002C082707AA002808A9000318A90AAC1B88
:102AD400A903831203132908AB002B08FF002A085B
:102AE40084000A128A1500200A168A11003A031972
:102AF40008002C082707AA002808A9000318A90A17
:102B0400AC1BA903831203132908AB002B08FF0095
:102B14002A0884000A128A1500200A168A110A1645
:102B24008A11E3240A168A11013083120313AC07B5
:102B34000318AD0A0030AD07622D00308312031371
:102B4400AE000030AD000030AC000030AB00221C01
:102B5400BF2D2608AB07270803110318013E031DE8
:102B6400AC07280803110318013E031DAD0729080B
:102B740003110318013E031DAE070130AA00031020
:102B8400A60DA70DA80DA90DAA0BC12D0130031088
:102B9400A50CA40CA30CA20CFF3E031DC92D2508F3
:102BA400240423042204031DA92D2E08A5002D08A6
:102BB400A4002C08A3002B08A2000800831203130E
:102BC400B1018E30AE002E08B000AD1FF62DAA095B
:102BD400AB09AC09AD09AA0A0319AB0A0319AC0A7B
:102BE4000319AD0AB101B10AFF302D050319082EEE
:102BF40001300310AD0CAC0CAB0CAA0CFF3E031D52
:102C0400FB2D0130AE002E08B007F62D2A08A200D5
:102C14002B08A3002C08A4003008AE002E08A50041
:102C24003108AF002F08A6000A168A1192278312D2
:102C340003132208AA002308AB002408AC000800F0
:102C440083120313A9002903031D4B2E26087F3E7C
:102C5400A7002708AC002C08A70004300310A70C19
:102C6400FF3E031D302E2708A8002808AA002C08C0
:102C74000F39A7002708AB002A080A168A119923DE
:102C84000A168A11831203132B080A168A11992330
:102C940008000230831203132906031D08002608C6
:102CA400BF3EA7002708AC002C08A700043003107F
:102CB400A70CFF3E031D592E2708A8002808AA00C8
:102CC4002C080F39A7002708AB002A080A168A1116
:102CD40099230A168A11831203132B080A168A11E0
:102CE4009923080083120313081E0800851A922EE4
:102CF40003306D06031D922E851E7E2E6C03031D6C
:102D04008E2EEA30A2000030A3007730A400803079
:102D1400A5000A168A11B52383120313EC010800D7
:102D24000919AD2E03306D06031DAD2E091D982E15
:102D34006C08031DA82EEA30A2000030A3007730EF
:102D4400A4008030A5000A168A11B5238312031348
:102D5400EC01EC0A08000918BF2E091CAF2E033041
:102D64006D020318BA2E0130A9002908ED070800E6
:102D74000330A9002908ED00080089180800891CFF
:102D8400C12E6D080319C92E0130ED020800ED01B2
:102D9400080083120313D41FF42E0030D80000302F
:102DA400D9008030DA005209DB005309DC005409F1
:102DB400DD00DB0A0319DC0A0319DD0A5B08D80706
:102DC4005C0803185C0FE72EE82ED9075D0803188A
:102DD4005D0FED2EEE2EDA075808D2005908D30005
:102DE4005A08D400D71F1B2F0030D8000030D90058
:102DF4008030DA005509DB005609DC005709DD0094
:102E0400DB0A0319DC0A0319DD0A5B08D8075C082E
:102E140003185C0F0E2F0F2FD9075D0803185D0FE1
:102E2400142F152FDA075808D5005908D6005A0868
:102E3400D7008030D4068030D70657085402031DCB
:102E4400080056085302031D0800550852020800E2
:102E540083160313260883120313A2008316031395
:102E6400270883120313A30083160313280883126D
:102E74000313A400AC30EA006A08A5000A168A11FC
:102E8400A7240A168A1183160313AD1F502F00308E
:102E9400A6000030A7000030A800080000302D0272
:102EA400153003192C020318080026088312031393
:102EB400E20083160313270883120313E300831627
:102EC4000313280883120313E4000A128A157C22D0
:102ED4000A168A11831203136508AD006408AC0056
:102EE4006308AB006208AA000A168A11E02583125F
:102EF40003132A0883160313A900831203132B0850
:102F040083160313AA00831203132C0883160313D6
:102F1400AB002908A6002A08A7002B08A80008006F
:102F240083120313250803199C2F24082304220465
:102F3400031DAF2F0030A2000030A3000030A40016
:102F440008000130A7002708A50701300310A40CCE
:102F5400A30CA20CFF3E031DA82FFE302405031969
:102F6400CA2FA32F0130A7002708A5070130A20705
:102F7400003003180130A307003003180130A40700
:102F840001300310A40CA30CA20CFF3E031DC32F9D
:102F9400FF3024050319D92FB42F0130A5020130C5
:102FA4000310A20DA30DA40DFF3E031DD22FA31BDE
:102FB400DF2F023025020318CF2F2518E72FFF300B
:102FC400A2057F30A305FF30A4050310A50C250836
:102FD400A700A801A90110300310A70DA80DA90D81
:102FE400FF3E031DEE2F2708A2042808A304290886
:0C2FF400A404260803190800A417080014
:02400E00393F38
:00000001FF
